{
  "_format": "hh3-artifact-1",
  "contractName": "Voting",
  "sourceName": "contracts/Voting.sol",
  "abi": [
    {
      "inputs": [
        {
          "internalType": "string[]",
          "name": "candidateNames",
          "type": "string[]"
        }
      ],
      "stateMutability": "nonpayable",
      "type": "constructor"
    },
    {
      "anonymous": false,
      "inputs": [
        {
          "indexed": true,
          "internalType": "address",
          "name": "voter",
          "type": "address"
        },
        {
          "indexed": true,
          "internalType": "uint256",
          "name": "candidateIndex",
          "type": "uint256"
        }
      ],
      "name": "VoteCast",
      "type": "event"
    },
    {
      "anonymous": false,
      "inputs": [],
      "name": "VotingEnded",
      "type": "event"
    },
    {
      "anonymous": false,
      "inputs": [],
      "name": "VotingStarted",
      "type": "event"
    },
    {
      "inputs": [],
      "name": "admin",
      "outputs": [
        {
          "internalType": "address",
          "name": "",
          "type": "address"
        }
      ],
      "stateMutability": "view",
      "type": "function"
    },
    {
      "inputs": [
        {
          "internalType": "uint256",
          "name": "",
          "type": "uint256"
        }
      ],
      "name": "candidates",
      "outputs": [
        {
          "internalType": "string",
          "name": "name",
          "type": "string"
        },
        {
          "internalType": "uint256",
          "name": "voteCount",
          "type": "uint256"
        }
      ],
      "stateMutability": "view",
      "type": "function"
    },
    {
      "inputs": [],
      "name": "endVoting",
      "outputs": [],
      "stateMutability": "nonpayable",
      "type": "function"
    },
    {
      "inputs": [],
      "name": "getCandidates",
      "outputs": [
        {
          "components": [
            {
              "internalType": "string",
              "name": "name",
              "type": "string"
            },
            {
              "internalType": "uint256",
              "name": "voteCount",
              "type": "uint256"
            }
          ],
          "internalType": "struct Voting.Candidate[]",
          "name": "",
          "type": "tuple[]"
        }
      ],
      "stateMutability": "view",
      "type": "function"
    },
    {
      "inputs": [],
      "name": "getWinner",
      "outputs": [
        {
          "internalType": "bool",
          "name": "tie",
          "type": "bool"
        },
        {
          "internalType": "string",
          "name": "winnerName",
          "type": "string"
        },
        {
          "internalType": "uint256",
          "name": "winnerVotes",
          "type": "uint256"
        }
      ],
      "stateMutability": "view",
      "type": "function"
    },
    {
      "inputs": [
        {
          "internalType": "address",
          "name": "",
          "type": "address"
        }
      ],
      "name": "hasVoted",
      "outputs": [
        {
          "internalType": "bool",
          "name": "",
          "type": "bool"
        }
      ],
      "stateMutability": "view",
      "type": "function"
    },
    {
      "inputs": [],
      "name": "startVoting",
      "outputs": [],
      "stateMutability": "nonpayable",
      "type": "function"
    },
    {
      "inputs": [
        {
          "internalType": "uint256",
          "name": "candidateIndex",
          "type": "uint256"
        }
      ],
      "name": "vote",
      "outputs": [],
      "stateMutability": "nonpayable",
      "type": "function"
    },
    {
      "inputs": [],
      "name": "votingActive",
      "outputs": [
        {
          "internalType": "bool",
          "name": "",
          "type": "bool"
        }
      ],
      "stateMutability": "view",
      "type": "function"
    }
  ],
  "bytecode": "0x608060405234801561000f575f5ffd5b50604051610d43380380610d4383398101604081905261002e9161010d565b600280546001600160a01b031916331790555f5b81518110156100b5576001604051806040016040528084848151811061006a5761006a610231565b60209081029190910181015182525f9181018290528354600181018555938252902081519192600202019081906100a190826102c9565b506020919091015160019182015501610042565b50506002805460ff60a01b19169055610383565b634e487b7160e01b5f52604160045260245ffd5b604051601f8201601f191681016001600160401b0381118282101715610105576101056100c9565b604052919050565b5f6020828403121561011d575f5ffd5b81516001600160401b03811115610132575f5ffd5b8201601f81018413610142575f5ffd5b80516001600160401b0381111561015b5761015b6100c9565b8060051b61016b602082016100dd565b91825260208184018101929081019087841115610186575f5ffd5b6020850192505b838310156102265782516001600160401b038111156101aa575f5ffd5b8501603f810189136101ba575f5ffd5b60208101516001600160401b038111156101d6576101d66100c9565b6101e9601f8201601f19166020016100dd565b8181526040838301018b10156101fd575f5ffd5b8160408401602083015e5f6020838301015280855250505060208201915060208301925061018d565b979650505050505050565b634e487b7160e01b5f52603260045260245ffd5b600181811c9082168061025957607f821691505b60208210810361027757634e487b7160e01b5f52602260045260245ffd5b50919050565b601f8211156102c457805f5260205f20601f840160051c810160208510156102a25750805b601f840160051c820191505b818110156102c1575f81556001016102ae565b50505b505050565b81516001600160401b038111156102e2576102e26100c9565b6102f6816102f08454610245565b8461027d565b6020601f821160018114610328575f83156103115750848201515b5f19600385901b1c1916600184901b1784556102c1565b5f84815260208120601f198516915b828110156103575787850151825560209485019460019092019101610337565b508482101561037457868401515f19600387901b60f8161c191681555b50505050600190811b01905550565b6109b3806103905f395ff3fe608060405234801561000f575f5ffd5b5060043610610090575f3560e01c80633477ee2e116100635780633477ee2e14610101578063408e2727146101225780638e7ea5b214610136578063c3403ddf1461014d578063f851a44014610155575f5ffd5b80630121b93f1461009457806306a49fce146100a957806309eef43e146100c75780631ec6b60a146100f9575b5f5ffd5b6100a76100a2366004610796565b610180565b005b6100b16102ad565b6040516100be91906107db565b60405180910390f35b6100e96100d5366004610852565b5f6020819052908152604090205460ff1681565b60405190151581526020016100be565b6100a76103a2565b61011461010f366004610796565b61045b565b6040516100be92919061087f565b6002546100e990600160a01b900460ff1681565b61013e610510565b6040516100be939291906108a0565b6100a76106e5565b600254610168906001600160a01b031681565b6040516001600160a01b0390911681526020016100be565b600254600160a01b900460ff166101d55760405162461bcd60e51b8152602060048201526014602482015273566f74696e67206973206e6f742061637469766560601b60448201526064015b60405180910390fd5b335f9081526020819052604090205460ff161561022c5760405162461bcd60e51b81526020600482015260156024820152741059191c995cdcc8185b1c9958591e481d9bdd1959605a1b60448201526064016101cc565b335f908152602081905260409020805460ff19166001908117909155805481908390811061025c5761025c6108ca565b905f5260205f2090600202016001015f82825461027991906108de565b9091555050604051819033907fa36cc2bebb74db33e9f88110a07ef56e1b31b24b4c4f51b54b1664266e29f45b905f90a350565b60606001805480602002602001604051908101604052809291908181526020015f905b82821015610399578382905f5260205f2090600202016040518060400160405290815f8201805461030090610903565b80601f016020809104026020016040519081016040528092919081815260200182805461032c90610903565b80156103775780601f1061034e57610100808354040283529160200191610377565b820191905f5260205f20905b81548152906001019060200180831161035a57829003601f168201915b50505050508152602001600182015481525050815260200190600101906102d0565b50505050905090565b6002546001600160a01b031633146103cc5760405162461bcd60e51b81526004016101cc9061093b565b600254600160a01b900460ff161561041e5760405162461bcd60e51b8152602060048201526015602482015274566f74696e6720616c72656164792061637469766560581b60448201526064016101cc565b6002805460ff60a01b1916600160a01b1790556040517f877e2548498f42b7975a186b94ef1d32c86d420b7b806dd2be2bea293b895904905f90a1565b6001818154811061046a575f80fd5b905f5260205f2090600202015f91509050805f01805461048990610903565b80601f01602080910402602001604051908101604052809291908181526020018280546104b590610903565b80156105005780601f106104d757610100808354040283529160200191610500565b820191905f5260205f20905b8154815290600101906020018083116104e357829003601f168201915b5050505050908060010154905082565b5f60605f600260149054906101000a900460ff16156105675760405162461bcd60e51b8152602060048201526013602482015272566f74696e67207374696c6c2061637469766560681b60448201526064016101cc565b5f92508280805b60015481101561060857826001828154811061058c5761058c6108ca565b905f5260205f2090600202016001015411156105d257600181815481106105b5576105b56108ca565b905f5260205f2090600202016001015492508091505f9550610600565b82600182815481106105e6576105e66108ca565b905f5260205f209060020201600101540361060057600195505b60010161056e565b50846001828154811061061d5761061d6108ca565b905f5260205f2090600202015f016001838154811061063e5761063e6108ca565b905f5260205f2090600202016001015481805461065a90610903565b80601f016020809104026020016040519081016040528092919081815260200182805461068690610903565b80156106d15780601f106106a8576101008083540402835291602001916106d1565b820191905f5260205f20905b8154815290600101906020018083116106b457829003601f168201915b505050505091509450945094505050909192565b6002546001600160a01b0316331461070f5760405162461bcd60e51b81526004016101cc9061093b565b600254600160a01b900460ff1661075f5760405162461bcd60e51b8152602060048201526014602482015273566f74696e67206973206e6f742061637469766560601b60448201526064016101cc565b6002805460ff60a01b191690556040517f7a19ed057db79e3c2fa0b97a54b43bef4fce74b31bb6c01af514b9a18a7f70ab905f90a1565b5f602082840312156107a6575f5ffd5b5035919050565b5f81518084528060208401602086015e5f602082860101526020601f19601f83011685010191505092915050565b5f602082016020835280845180835260408501915060408160051b8601019250602086015f5b8281101561084657603f19878603018452815180516040875261082760408801826107ad565b6020928301519783019790975250938401939190910190600101610801565b50929695505050505050565b5f60208284031215610862575f5ffd5b81356001600160a01b0381168114610878575f5ffd5b9392505050565b604081525f61089160408301856107ad565b90508260208301529392505050565b8315158152606060208201525f6108ba60608301856107ad565b9050826040830152949350505050565b634e487b7160e01b5f52603260045260245ffd5b808201808211156108fd57634e487b7160e01b5f52601160045260245ffd5b92915050565b600181811c9082168061091757607f821691505b60208210810361093557634e487b7160e01b5f52602260045260245ffd5b50919050565b60208082526022908201527f4f6e6c792061646d696e2063616e20706572666f726d2074686973206163746960408201526137b760f11b60608201526080019056fea2646970667358221220466be8f1eb9d341878492c9a1362506834269cba44da1610a2525405acdd7fed64736f6c634300081c0033",
  "linkReferences": {},
  "deployedLinkReferences": {},
  "immutableReferences": {},
  "inputSourceName": "project/contracts/Voting.sol",
  "buildInfoId": "solc-0_8_28-33465bd37ba352500a09ddf919379e1303a1a2b2"
}